{
    "contractName": "CarFactory",
    "abi": [
        {
            "inputs": [
                {
                    "internalType": "uint256",
                    "name": "",
                    "type": "uint256"
                }
            ],
            "name": "Cars",
            "outputs": [
                {
                    "internalType": "contract Car",
                    "name": "",
                    "type": "address"
                }
            ],
            "stateMutability": "view",
            "type": "function"
        },
        {
            "inputs": [],
            "name": "createCar",
            "outputs": [],
            "stateMutability": "nonpayable",
            "type": "function"
        }
    ],
    "bytecode": "608060405234801561001057600080fd5b506101d0806100206000396000f3fe608060405234801561001057600080fd5b50600436106100365760003560e01c8063e77100d41461003b578063f40e03c214610045575b600080fd5b610043610074565b005b610058610053366004610125565b6100ef565b6040516001600160a01b03909116815260200160405180910390f35b600060405161008290610119565b604051809103906000f08015801561009e573d6000803e3d6000fd5b50600080546001810182559080527f290decd9548b62a8d60345a988386fc84ba6bc95484008f6362f93160ef3e5630180546001600160a01b0319166001600160a01b039290921691909117905550565b600081815481106100ff57600080fd5b6000918252602090912001546001600160a01b0316905081565b605c8061013f83390190565b60006020828403121561013757600080fd5b503591905056fe6080604052348015600f57600080fd5b50603f80601d6000396000f3fe6080604052600080fdfea26469706673582212201422cb2a912470ba5500432e3ec558b088b7c83c2cb7eabe3f3b27ef62d4326864736f6c634300080f0033a264697066735822122000ad9a85ded6c2baa2c20a2b6c75435eb73187cc2fd3f5f07c3790345ea81ddc64736f6c634300080f0033",
    "sourcePath": "c:/Users/Nikos/source/repos/CSharpInWeb3SmartContracts/CSharpInWeb3SmartContracts/SmartContracts/FactoryPattern/FactoryPattern.sol",
    "compiler": {
        "name": "solc",
        "version": "0.8.15+commit.e14f2714"
    },
    "functionHashes": {
        "Cars(uint256)": "f40e03c2",
        "createCar()": "e77100d4"
    },
    "gasEstimates": {
        "creation": {
            "codeDepositCost": "92800",
            "executionCost": "141",
            "totalCost": "92941"
        },
        "external": {
            "Cars(uint256)": "4602",
            "createCar()": "infinite"
        }
    }
}