{
    "contractName": "Pausable",
    "abi": [
        {
            "anonymous": false,
            "inputs": [
                {
                    "indexed": false,
                    "internalType": "address",
                    "name": "addr",
                    "type": "address"
                }
            ],
            "name": "AuthorizableAddressAdded",
            "type": "event"
        },
        {
            "anonymous": false,
            "inputs": [
                {
                    "indexed": false,
                    "internalType": "address",
                    "name": "addr",
                    "type": "address"
                }
            ],
            "name": "AuthorizableAddressRemoved",
            "type": "event"
        },
        {
            "anonymous": false,
            "inputs": [],
            "name": "NotPausable",
            "type": "event"
        },
        {
            "anonymous": false,
            "inputs": [
                {
                    "indexed": true,
                    "internalType": "address",
                    "name": "previousOwner",
                    "type": "address"
                }
            ],
            "name": "OwnershipRenounced",
            "type": "event"
        },
        {
            "anonymous": false,
            "inputs": [
                {
                    "indexed": true,
                    "internalType": "address",
                    "name": "previousOwner",
                    "type": "address"
                },
                {
                    "indexed": true,
                    "internalType": "address",
                    "name": "newOwner",
                    "type": "address"
                }
            ],
            "name": "OwnershipTransferred",
            "type": "event"
        },
        {
            "anonymous": false,
            "inputs": [],
            "name": "Pause",
            "type": "event"
        },
        {
            "anonymous": false,
            "inputs": [],
            "name": "Unpause",
            "type": "event"
        },
        {
            "inputs": [
                {
                    "internalType": "address",
                    "name": "addr",
                    "type": "address"
                }
            ],
            "name": "addAuthorizedAddress",
            "outputs": [
                {
                    "internalType": "bool",
                    "name": "success",
                    "type": "bool"
                }
            ],
            "stateMutability": "nonpayable",
            "type": "function"
        },
        {
            "inputs": [
                {
                    "internalType": "address[]",
                    "name": "addrs",
                    "type": "address[]"
                }
            ],
            "name": "addAuthorizedAddresses",
            "outputs": [
                {
                    "internalType": "bool",
                    "name": "success",
                    "type": "bool"
                }
            ],
            "stateMutability": "nonpayable",
            "type": "function"
        },
        {
            "inputs": [
                {
                    "internalType": "address",
                    "name": "",
                    "type": "address"
                }
            ],
            "name": "authorized",
            "outputs": [
                {
                    "internalType": "bool",
                    "name": "",
                    "type": "bool"
                }
            ],
            "stateMutability": "view",
            "type": "function"
        },
        {
            "inputs": [],
            "name": "canPause",
            "outputs": [
                {
                    "internalType": "bool",
                    "name": "",
                    "type": "bool"
                }
            ],
            "stateMutability": "view",
            "type": "function"
        },
        {
            "inputs": [],
            "name": "notPausable",
            "outputs": [],
            "stateMutability": "nonpayable",
            "type": "function"
        },
        {
            "inputs": [],
            "name": "owner",
            "outputs": [
                {
                    "internalType": "address",
                    "name": "",
                    "type": "address"
                }
            ],
            "stateMutability": "view",
            "type": "function"
        },
        {
            "inputs": [],
            "name": "pause",
            "outputs": [],
            "stateMutability": "nonpayable",
            "type": "function"
        },
        {
            "inputs": [],
            "name": "paused",
            "outputs": [
                {
                    "internalType": "bool",
                    "name": "",
                    "type": "bool"
                }
            ],
            "stateMutability": "view",
            "type": "function"
        },
        {
            "inputs": [
                {
                    "internalType": "address",
                    "name": "addr",
                    "type": "address"
                }
            ],
            "name": "removeAddressFromAuthorized",
            "outputs": [
                {
                    "internalType": "bool",
                    "name": "success",
                    "type": "bool"
                }
            ],
            "stateMutability": "nonpayable",
            "type": "function"
        },
        {
            "inputs": [
                {
                    "internalType": "address[]",
                    "name": "addrs",
                    "type": "address[]"
                }
            ],
            "name": "removeAddressesFromWhitelist",
            "outputs": [
                {
                    "internalType": "bool",
                    "name": "success",
                    "type": "bool"
                }
            ],
            "stateMutability": "nonpayable",
            "type": "function"
        },
        {
            "inputs": [],
            "name": "renounceOwnership",
            "outputs": [],
            "stateMutability": "nonpayable",
            "type": "function"
        },
        {
            "inputs": [
                {
                    "internalType": "address",
                    "name": "newOwner",
                    "type": "address"
                }
            ],
            "name": "transferOwnership",
            "outputs": [],
            "stateMutability": "nonpayable",
            "type": "function"
        },
        {
            "inputs": [],
            "name": "unpause",
            "outputs": [],
            "stateMutability": "nonpayable",
            "type": "function"
        }
    ],
    "bytecode": "60806040526002805461ffff191661010017905534801561001f57600080fd5b50600080546001600160a01b0319163317905561077a806100416000396000f3fe608060405234801561001057600080fd5b50600436106100cf5760003560e01c80635c975abb1161008c5780638da5cb5b116100665780638da5cb5b14610163578063b91816111461018e578063df698d91146101b1578063f2fde38b146101c457600080fd5b80635c975abb14610146578063715018a6146101535780638456cb591461015b57600080fd5b80630b941d42146100d457806324953eaa146100fc578063323be1c51461010f5780633f4ba83a1461012157806342f1181e1461012b5780634be8b05e1461013e575b600080fd5b6100e76100e236600461060a565b6101d7565b60405190151581526020015b60405180910390f35b6100e761010a366004610642565b61026e565b6002546100e790610100900460ff1681565b6101296102d6565b005b6100e761013936600461060a565b610345565b6101296103d2565b6002546100e79060ff1681565b61012961041f565b61012961047e565b600054610176906001600160a01b031681565b6040516001600160a01b0390911681526020016100f3565b6100e761019c36600461060a565b60016020526000908152604090205460ff1681565b6100e76101bf366004610642565b61050c565b6101296101d236600461060a565b61056e565b600080546001600160a01b031633146101ef57600080fd5b6001600160a01b03821660009081526001602052604090205460ff1615610269576001600160a01b038216600081815260016020908152604091829020805460ff1916905590519182527f30f1a9db042fc7389bd5e7e71d7ad39fc1c494f787d5fcdc0d150e222220918591015b60405180910390a15060015b919050565b600080546001600160a01b0316331461028657600080fd5b60005b82518110156102d0576102b48382815181106102a7576102a7610707565b60200260200101516101d7565b156102be57600191505b806102c88161071d565b915050610289565b50919050565b6000546001600160a01b031633146102ed57600080fd5b60025460ff166102fc57600080fd5b60025460ff16151560011461031057600080fd5b6002805460ff191690556040517f7805862f689e2f13df9f062ff482ad3ad112aca9e0847911ed832e158c525b3390600090a1565b600080546001600160a01b0316331461035d57600080fd5b6001600160a01b03821660009081526001602052604090205460ff16610269576001600160a01b038216600081815260016020818152604092839020805460ff191690921790915590519182527f3321f195f358d65c51b72c057d3d95bb0532bbdd495ef27a73e3559b3c68b656910161025d565b6000546001600160a01b031633146103e957600080fd5b6002805461ffff191690556040517faff39f66825d4448497d384dee3f4a3adf00a622960add00806503ae4ccee01c90600090a1565b6000546001600160a01b0316331461043657600080fd5b600080546040516001600160a01b03909116917ff8df31144d9c2f0f6b59d69b8b98abd5459d07f2742c4df920b25aae33c6482091a2600080546001600160a01b0319169055565b6000546001600160a01b0316331461049557600080fd5b60025460ff1615806104b157506000546001600160a01b031633145b6104ba57600080fd5b60025460ff6101009091041615156001146104d457600080fd5b6002805460ff191660011790556040517f6985a02210a168e66602d3235cb6db0e70f92b3ba4d376a33c0f3d9434bff62590600090a1565b600080546001600160a01b0316331461052457600080fd5b60005b82518110156102d05761055283828151811061054557610545610707565b6020026020010151610345565b1561055c57600191505b806105668161071d565b915050610527565b6000546001600160a01b0316331461058557600080fd5b6001600160a01b03811661059857600080fd5b600080546040516001600160a01b03808516939216917f8be0079c531659141344cd1fd0a4f28419497f9722a3daafe3b4186f6b6457e091a3600080546001600160a01b0319166001600160a01b0392909216919091179055565b80356001600160a01b038116811461026957600080fd5b60006020828403121561061c57600080fd5b610625826105f3565b9392505050565b634e487b7160e01b600052604160045260246000fd5b6000602080838503121561065557600080fd5b823567ffffffffffffffff8082111561066d57600080fd5b818501915085601f83011261068157600080fd5b8135818111156106935761069361062c565b8060051b604051601f19603f830116810181811085821117156106b8576106b861062c565b6040529182528482019250838101850191888311156106d657600080fd5b938501935b828510156106fb576106ec856105f3565b845293850193928501926106db565b98975050505050505050565b634e487b7160e01b600052603260045260246000fd5b60006001820161073d57634e487b7160e01b600052601160045260246000fd5b506001019056fea264697066735822122007ac0e5ea9a103c0a5ccca7022cad5efe86466f518b67537a30bbd94379a064e64736f6c634300080f0033",
    "sourcePath": "c:/Users/Nikos/source/repos/CSharpInWeb3SmartContracts/CSharpInWeb3SmartContracts/SmartContracts/CryptoToken/CryptoToken.sol",
    "compiler": {
        "name": "solc",
        "version": "0.8.15+commit.e14f2714"
    },
    "functionHashes": {
        "addAuthorizedAddress(address)": "42f1181e",
        "addAuthorizedAddresses(address[])": "df698d91",
        "authorized(address)": "b9181611",
        "canPause()": "323be1c5",
        "notPausable()": "4be8b05e",
        "owner()": "8da5cb5b",
        "pause()": "8456cb59",
        "paused()": "5c975abb",
        "removeAddressFromAuthorized(address)": "0b941d42",
        "removeAddressesFromWhitelist(address[])": "24953eaa",
        "renounceOwnership()": "715018a6",
        "transferOwnership(address)": "f2fde38b",
        "unpause()": "3f4ba83a"
    },
    "gasEstimates": {
        "creation": {
            "codeDepositCost": "382800",
            "executionCost": "48877",
            "totalCost": "431677"
        },
        "external": {
            "addAuthorizedAddress(address)": "infinite",
            "addAuthorizedAddresses(address[])": "infinite",
            "authorized(address)": "2564",
            "canPause()": "2355",
            "notPausable()": "27381",
            "owner()": "2359",
            "pause()": "33763",
            "paused()": "2322",
            "removeAddressFromAuthorized(address)": "infinite",
            "removeAddressesFromWhitelist(address[])": "infinite",
            "renounceOwnership()": "29829",
            "transferOwnership(address)": "30488",
            "unpause()": "31595"
        }
    }
}