{
    "contractName": "Pausable",
    "abi": [
        {
            "anonymous": false,
            "inputs": [],
            "name": "NotPausable",
            "type": "event"
        },
        {
            "anonymous": false,
            "inputs": [
                {
                    "indexed": true,
                    "internalType": "address",
                    "name": "previousOwner",
                    "type": "address"
                }
            ],
            "name": "OwnershipRenounced",
            "type": "event"
        },
        {
            "anonymous": false,
            "inputs": [
                {
                    "indexed": true,
                    "internalType": "address",
                    "name": "previousOwner",
                    "type": "address"
                },
                {
                    "indexed": true,
                    "internalType": "address",
                    "name": "newOwner",
                    "type": "address"
                }
            ],
            "name": "OwnershipTransferred",
            "type": "event"
        },
        {
            "anonymous": false,
            "inputs": [],
            "name": "Pause",
            "type": "event"
        },
        {
            "anonymous": false,
            "inputs": [],
            "name": "Unpause",
            "type": "event"
        },
        {
            "inputs": [],
            "name": "canPause",
            "outputs": [
                {
                    "internalType": "bool",
                    "name": "",
                    "type": "bool"
                }
            ],
            "stateMutability": "view",
            "type": "function"
        },
        {
            "inputs": [],
            "name": "notPausable",
            "outputs": [],
            "stateMutability": "nonpayable",
            "type": "function"
        },
        {
            "inputs": [],
            "name": "owner",
            "outputs": [
                {
                    "internalType": "address",
                    "name": "",
                    "type": "address"
                }
            ],
            "stateMutability": "view",
            "type": "function"
        },
        {
            "inputs": [],
            "name": "pause",
            "outputs": [],
            "stateMutability": "nonpayable",
            "type": "function"
        },
        {
            "inputs": [],
            "name": "paused",
            "outputs": [
                {
                    "internalType": "bool",
                    "name": "",
                    "type": "bool"
                }
            ],
            "stateMutability": "view",
            "type": "function"
        },
        {
            "inputs": [],
            "name": "renounceOwnership",
            "outputs": [],
            "stateMutability": "nonpayable",
            "type": "function"
        },
        {
            "inputs": [
                {
                    "internalType": "address",
                    "name": "newOwner",
                    "type": "address"
                }
            ],
            "name": "transferOwnership",
            "outputs": [],
            "stateMutability": "nonpayable",
            "type": "function"
        },
        {
            "inputs": [],
            "name": "unpause",
            "outputs": [],
            "stateMutability": "nonpayable",
            "type": "function"
        }
    ],
    "bytecode": "60806040526000805461ffff60a01b1916600160a81b17905534801561002457600080fd5b50600080546001600160a01b031916331790556103da806100466000396000f3fe608060405234801561001057600080fd5b50600436106100885760003560e01c8063715018a61161005b578063715018a6146100dc5780638456cb59146100e45780638da5cb5b146100ec578063f2fde38b1461011757600080fd5b8063323be1c51461008d5780633f4ba83a146100b65780634be8b05e146100c05780635c975abb146100c8575b600080fd5b6000546100a190600160a81b900460ff1681565b60405190151581526020015b60405180910390f35b6100be61012a565b005b6100be6101a8565b6000546100a190600160a01b900460ff1681565b6100be6101f6565b6100be610255565b6000546100ff906001600160a01b031681565b6040516001600160a01b0390911681526020016100ad565b6100be610125366004610374565b6102ef565b6000546001600160a01b0316331461014157600080fd5b600054600160a01b900460ff1661015757600080fd5b600054600160a01b900460ff16151560011461017257600080fd5b6000805460ff60a01b191681556040517f7805862f689e2f13df9f062ff482ad3ad112aca9e0847911ed832e158c525b339190a1565b6000546001600160a01b031633146101bf57600080fd5b6000805461ffff60a01b191681556040517faff39f66825d4448497d384dee3f4a3adf00a622960add00806503ae4ccee01c9190a1565b6000546001600160a01b0316331461020d57600080fd5b600080546040516001600160a01b03909116917ff8df31144d9c2f0f6b59d69b8b98abd5459d07f2742c4df920b25aae33c6482091a2600080546001600160a01b0319169055565b6000546001600160a01b0316331461026c57600080fd5b600054600160a01b900460ff16158061028f57506000546001600160a01b031633145b61029857600080fd5b600054600160a81b900460ff1615156001146102b357600080fd5b6000805460ff60a01b1916600160a01b1781556040517f6985a02210a168e66602d3235cb6db0e70f92b3ba4d376a33c0f3d9434bff6259190a1565b6000546001600160a01b0316331461030657600080fd5b6001600160a01b03811661031957600080fd5b600080546040516001600160a01b03808516939216917f8be0079c531659141344cd1fd0a4f28419497f9722a3daafe3b4186f6b6457e091a3600080546001600160a01b0319166001600160a01b0392909216919091179055565b60006020828403121561038657600080fd5b81356001600160a01b038116811461039d57600080fd5b939250505056fea2646970667358221220cba5c9ce7b74cdfcbab2fe561b2ceb9c069fc0ac65441eff00f12caa8915e32364736f6c634300080f0033",
    "sourcePath": "c:/Users/Nikos/source/repos/CSharpInWeb3SmartContracts/CSharpInWeb3SmartContracts/SmartContracts/CryptoToken/CryptoToken.sol",
    "compiler": {
        "name": "solc",
        "version": "0.8.15+commit.e14f2714"
    },
    "functionHashes": {
        "canPause()": "323be1c5",
        "notPausable()": "4be8b05e",
        "owner()": "8da5cb5b",
        "pause()": "8456cb59",
        "paused()": "5c975abb",
        "renounceOwnership()": "715018a6",
        "transferOwnership(address)": "f2fde38b",
        "unpause()": "3f4ba83a"
    },
    "gasEstimates": {
        "creation": {
            "codeDepositCost": "197200",
            "executionCost": "48709",
            "totalCost": "245909"
        },
        "external": {
            "canPause()": "2317",
            "notPausable()": "27318",
            "owner()": "2381",
            "pause()": "33747",
            "paused()": "2383",
            "renounceOwnership()": "29784",
            "transferOwnership(address)": "30431",
            "unpause()": "31588"
        }
    }
}